:020000040000FA
:20000000005000207D0F0000750F00005D0F0000790F0000790F0000790F0000000000005C
:20002000000000000000000000000000790F0000790F000000000000790F0000790F0000A0
:20004000B53B0000790F0000F58B0000790F000021320000A1360000790F0000790F0000E6
:20006000790F00001D8C0000790F0000790F0000790F0000790F0000790F0000790F00001F
:20008000790F0000790F0000790F0000790F0000790F0000790F0000790F0000790F000020
:2000A000790F0000790F0000790F0000790F0000790F0000790F0000790F0000790F000000
:2000C000790F00006D7C0000294B1B689B0702D44FF000407047F0B5002083B0452102F0BA
:2000E00007FF0DF106010120022208F08FF838B901A8022108F0B4F84FF0004003B0F0BDF1
:200100000DF106010020022208F080F80028EFD0BDF806305BBA9CB2200BADF804300AF0F3
:2001200011F909F0B3FC0646C4F30B000F460AF019F90DA3D3E9002304460D46304639467D
:200140000AF076F902460B46204629460AF070F90AF008FC07490AF063FD0AF0B1FE03B061
:20016000F0BD00BFAFF300807B14AE47E17A843F680E00200000C84208B51F4B1B68032BD7
:2001800033D1431E012B30D81C4A1D4B012812881B8812D018460AF0D5F80022194B0AF00B
:2001A00047F90022184B0AF043F90AF0DBFB17490AF036FD0AF084FE08BD10460AF0C2F89C
:2001C0000022104B0AF034F909A3D3E900230AF02FF900220E4B09F077FF0AF0C3FB0B49D8
:2001E0000AF01EFD0AF06CFE08BD4FF0004008BD0000000000A064408C0E0020EC1F002054
:20020000EE1F00200000F03E000059400000C84200004440000000002DE9F041664B1B68E1
:200220004BB1664B002210F0380604461A609A8006D142073ED14FF000463046BDE8F08193
:2002400002F05EFF5E4D286007E002F059FF2A686FF009039B1AC34203D502F0D9F8002871
:20026000F3D0584B1B78D907E5D5544D0120682102F03EFE29463B20062207F0C7FF064677
:200280000020014602F034FE002E7ED02F786E78A878E9782A796B79202C6F702E70E870A1
:2002A000A9706A712B715AD0102C65D0082C66D00026C2E702F024FF414D286007E002F0D6
:2002C0001FFF2A686FF009039B1AC34203D502F09FF80028F3D03B4B1B78DB07ABD5374DFE
:2002E0000120682102F004FE29464320062207F08DFF074600284DD095F8008095F801C0F6
:2003000095F802E0EF782A796B790020014685F8018085F800C085F803E0AF706A712B71E8
:2003200002F0E6FD042C06D0022C2BD0012C84D1B5F9040001E0B5F900000AF013F81CA332
:20034000D3E900230AF09EF90AF00CFB1E490AF067FC0AF0B5FD06463046BDE8F081B5F936
:20036000000001F07FFF18490AF05AFC0AF0A8FD06463046BDE8F081B5F90200F1E7B5F9B0
:200380000400EEE7B5F90200D7E72846062107F067FF50E72846062107F062FF3846394603
:2003A00002F0A6FD4FF0004647E700BFAFF300800000000000606040BC0E0020940E002068
:2003C00024200020FB1F00200000C842000000002DE9F04F144623F00047024657EA0400DF
:2003E0000E468FB01D469C46214634D06E4B26F0004A9A459346B14626DC24D09F4223DC1C
:20040000694B9F4200F08F80B9F1000FC0F28F804FF0000879BB644B9F4200F0A580634B00
:200420009F4267D0BCF1804F00F0E283604B9C4521D1B9F1000F1EDB104631460FB0BDE872
:20044000F04F09F0A3BC62B10AF1404000F5801050EA0B0007D10346544918460FB0BDE82D
:20046000F08F5745CCDD53480FB0BDE8F04F09F08BBD4FF0000810463146CDF808C0009206
:2004800009F04AFD009ADDF808C0BBF1000F20D04FEAD97909F1FF3958EA09037AD0464B54
:2004A0009F4240F38F8003F104739F4240F31084424B9A4540F39283BCF1000F40F392834E
:2004C00037A1D1E900010B46024609F0B1FF0346C3E7BAF1000F04D0344B29F0404E9E45BD
:2004E000D6D1BCF1000FC0F2B683B9F1000F08DB0346B2E7BCF1000FC0F25284134631461C
:20050000ABE70AF1404A0AF5801A58EA0A0340F05E8402460B4609F0D7FD0B4602460AF0D1
:20052000B1F8034699E700293FF46EAF8CE7244B9F422CDCA3F154739F427FF769AF40F209
:2005400013403B15834240F34B84C3F58663033321FA03F000FA03F38B427FF459AF00F024
:200560000100C0F1020855E70AF1404303F5801353EA0B0300F03983104B9A4540F364832F
:20058000BCF1000FC0F22E832346294665E74FF002083FE7104631463346BCE7AFF300809E
:2005A0009C7500883CE4377E0000F07F0000F03F0000E03F44BA00000000E041FFFFEF3FC5
:2005C000FFFF3F43BAF5801F4FF0000205DACA4B09F02EFF8A466FF034024FEA2A53C74EC2
:2005E000CAF3130AA3F2FF334AF07F571344B2450C9347F4401740F3D083C14B9A4540F327
:2006000007840026B4460C9BA7F5801701330C933946BC4B4FEACC0C6344D3E900AB524645
:200620005B46CDF834C0CDE9060109F04DFD52465B46CDE90801DDE9060109F047FD024616
:200640000B460020B0490AF01DF802460B46DDE90801CDE90A2309F0EBFE02460B46CDE9A5
:200660000223CDE904237B1043F0005303F5002399190020002306460F460293DDE9022336
:200680001046194632463B46CDE9000109F0D0FE02460B46DDE9080109F016FD5246CDE96C
:2006A00008015B463046394609F00EFD02460B46DDE9060109F008FD02460B46DDE90001D3
:2006C00009F0B6FE02460B46DDE9080109F0FCFCDDE90A2309F0ACFEDDE90423CDE90601D4
:2006E0001046194609F0A4FE02460B4606460F4609F09EFE6EA3D3E9002382468B463046DC
:20070000394609F095FE6CA3D3E9002309F0DEFC32463B4609F08CFE69A3D3E9002309F0AD
:20072000D5FC32463B4609F083FE67A3D3E9002309F0CCFC32463B4609F07AFE64A3D3E99E
:20074000002309F0C3FC32463B4609F071FE62A3D3E9002309F0BAFC02460B4650465946FC
:2007600009F066FEDDE9042306460F46DDE9000109F0ACFCDDE9062309F05AFE32463B46ED
:2007800009F0A4FCDDE9006782468B4632463B463046394609F04CFE00225C4BCDE9080141
:2007A00009F094FC52465B4609F090FC02980F460646DDE9000132463B4609F039FE32464F
:2007C0003B46CDE90001DDE9060109F031FE0022CDE906014D4B3046394609F075FCDDE950
:2007E000082309F071FC02460B465046594609F06BFCDDE9042309F01BFE02460B46DDE9DC
:20080000060109F063FC82468B46DDE9000152465B4609F05BFC32A3D3E9002302980F46ED
:20082000064609F005FE30A3D3E90023CDE904013046394609F0FCFDDDE90023CDE9060176
:200840003046394609F040FC02460B465046594609F03AFC26A3D3E9002309F0E9FD0246A2
:200860000B46DDE9060109F031FCDDF834C0284BCDF818C06344D3E9002309F027FCCDE903
:2008800000010C9809F06EFD06460F46DDE90401204BDDF818C09C44DDE90023DCE900AB92
:2008A00009F014FC52465B4636E000BFAFF30080EF4E454A287ECA3F65DBC9934A86CD3F0C
:2008C00001411DA96074D13F4D268F515555D53FFFAB6FDBB66DDB3F033333333333E33FC6
:2008E000000000E009C7EE3FF5015B14E02F3EBEFD033ADC09C7EE3F000040438E980300EC
:2009000079B60B0030B700000000F03F0000084020B7000010B70000CDE906AB09F0D6FB70
:2009200032463B4609F0D2FB029832463B4682468B4609F0C9FBDDE9062309F0C5FBDDE9A1
:20094000042309F0C1FB02460B46DDE9000109F0BBFBCDE9020108F1FF3858EA09030CBFAA
:20096000D54BD64B0022CDE904230023CDE900450093DDE90067204632463B46294609F092
:20098000A3FB52465B4609F053FDDDE90223804689462046294609F04BFD02460B46404682
:2009A000494609F093FB04460D465246304639465B46CDE9024509F03BFD06460F46204621
:2009C0003B462946324609F081FBBD4B824699428946884640F3138101F13F4303F5E003DC
:2009E000034340F0E581A0A3D3E90023DDE9020109F06CFB324604460D463B465046494615
:200A000009F062FB02460B462046294609F0A0FF002840F0CD814C462015A0F2FE304FF40A
:200A2000801101414144C1F30A50A64CA0F2FF35C1F3130BC0F5826003302C414BF4801BB5
:200A400021EA040300224BFA00FB3946304609F03BFB06460F46DDE902018BEAE87B0BEBC6
:200A6000D87B32463B464FEA0B5A09F02FFB80A3D3E90023002420460D4609F0D9FC324644
:200A8000804689463B462046294609F01DFB02460B46DDE9020109F017FB77A3D3E90023F4
:200AA00009F0C6FC76A3D3E9002306460F462046294609F0BDFC02460B463046394609F0D4
:200AC00005FB06460F4632463B464046494609F0FDFA42464B4604460D4609F0F5FA024691
:200AE0000B463046394609F0EFFA2246804689462B462046294609F09BFC63A3D3E9002316
:200B000006460F4609F094FC61A3D3E9002309F0DBFA32463B4609F08BFC5FA3D3E90023A0
:200B200009F0D4FA32463B4609F082FC5CA3D3E9002309F0C9FA32463B4609F079FC5AA380
:200B4000D3E9002309F0C2FA32463B4609F070FC02460B462046294609F0B6FA06460F46EB
:200B600032463B462046294609F062FC0022CDE900014FF080433046394609F0A5FA0246A0
:200B80000B46DDE9000109F07DFD424606460F464B462046294609F04BFC42464B4609F0E9
:200BA00095FA02460B463046394609F08DFA22462B4609F089FA02460B4600203F4909F009
:200BC00083FA8A44BAF5801F0246C0F227815346DDE9040109F02CFC03463EE4BCF1000F2E
:200BE000FFF66EAC0023194637E40B46334934E433461046314609F01BFC03462DE4324B37
:200C000021F000449C4240F3FA80304B0B4403430CD132463B4609F057FA02460B46DDE965
:200C2000020109F081FE00283FF4F6AE20A3D3E90023DDE9040109F0FBFB1DA3D3E900233F
:200C400009F0F6FB034608E4BCF1000FCADA234605F1004101E402460B460020174909F07E
:200C600011FD42E4AFF30080FE822B654715973C00000000432EE63FEF39FAFE422EE63F94
:200C8000396CA80C615C20BED0A4BE726937663EF16BD2C541BDBB3E2CDE25AF6A56113FA0
:200CA00093BDBE166CC1663F3E5555555555C53F59F3F8C21F6EA5010000F0BF0000F03F3C
:200CC000FFFF8F40FFFF0F00FFCB904000346F3F634B9A4582DD634B9A453FF7EDAB002255
:200CE000604B09F0F1F954A3D3E9002306460F4609F09EFB52A3D3E90023CDE9000130465C
:200D0000394609F095FB3246CDE902013B463046394609F08DFB002282468B4630463946F3
:200D2000514B09F085FB02460B4647A1D1E9000109F0CAF932463B4609F07AFB02460B46A6
:200D400000204A4909F0C0F902460B465046594609F06EFB3EA3D3E9002309F069FB024699
:200D60000B46DDE9020109F0AFF906460F46DDE9000132463B4609F0A9F9DDE900230020B3
:200D800082468B4609F0A0F902460B463046394609F09AF9CDE90201DDE50026B44637E458
:200DA000334600202F4909F06DFC0346FFF755BB29A3D3E90023DDE9040109F039FB26A305
:200DC000D3E9002309F034FB0346FFF746BBB8F1010F03467FF441AB01F10041FFF73DBB4A
:200DE00000297FF446ABC3F58263033347FA03F000FA03F3BB4217D08846FFF710BB1B4B96
:200E00009C423FF709AEDDE90023924693462EE64FF480264FF0010CFFF7FABB5A4600F0E9
:200E200027F802460B46D3E600F00100C0F10208FFF7F5BAAFF30080000000604715F73FDC
:200E400044DF5DF80BAE543E555555555555D53FFE822B654715F73F9C7500883CE4377EAD
:200E6000FEFFEF3F0000F03F0000D03F0000E03FF8B5C1F30A5604460D460B46174616BB0D
:200E800021F00043034332D00022314B09F0D0FA304A044697420D460B4637DB40F2FE7260
:200EA000C1F30A56363E3E44964215DD24A1D1E9000122462B4609F0FBF821A3D3E9002376
:200EC00009F0B6FAF8BD40F2FF72964224D040F2FE723E449642E9DC002E09DD23F0FF431B
:200EE00023F4E00343EA065520462946F8BDF8BD16F1350F15DA4CF250339F42D6DC12A1F0
:200F0000D1E9000122462B4609F0D2F80EA3D3E9002309F08DFAF8BD02460B4609F0D6F855
:200F2000F8BD23F0FF4323F4E003363643EA0655204629460022084B09F07AFAF8BD00BF8E
:200F40009C7500883CE4377E59F3F8C21F6EA50100005043B03CFFFF0000903C044B1A68D0
:200F6000B2F5806F03D01B689B0500D4FEE7704728ED00E0FEE700BFFEE700BF08B505F086
:200F800033FB104A104B9A420DD2D0430F4918440B4620F003000430084453F8041B8342D9
:200FA00042F8041BF9D10A480A494FF000028842B8BF40F8042BFADB00F022FCFFF7CEFFDA
:200FC00008BD00BF00000020B9050020F8BD0000C00500206A200020014800F0A3BD00BFF3
:200FE000C0BA000010F0010330B414D14508A9B284B270B1029A6D0099428CBF1370581B86
:2010000003F101039BB298BF1070A34202F10102F2D130BC7047411E49106FEA4105029A80
:2010200080B2EDB289B2002399422CBF1370EC1803F101039BB238BF1470834202F10102B9
:20104000F2D130BC704700BF2DE9F0411446804604F0C2FE6208012AB8F8021015D90124E6
:201060002346454635F8020F0EB207B2B74203F10106C8BF1C46F3B2C8BF01469342F1D1DE
:20108000640038F90400BDE8F0810224F9E700BF2DE9F04790F800E682B007460C461646F4
:2010A0001D46BEF1000F00F081810EF1FF30C0B207EB4000BB1E002233F9021F83420A44F0
:2010C000FAD192FBFEF2628297F8002638463146FFF7BAFF208097F800867A884FEA580A39
:2010E000BAF1010F40F2648101200346BE463EF8021F0FFA82FC0FFA81F9E14503F1010C28
:20110000C8BF18465FFA8CF3C8BF0A465345EED18146012090FBF8F009F024F90095024696
:201120000B464046FFF75EFF15F8093007F58078237397F800E6BEF1000F00F03C810EF1D6
:20114000FF30C0B208EB400007F1FE03002233F9021F83420A44FAD192FBFEF2A28297F845
:20116000002640463146FFF76FFF608097F80096B7F802214FEA5909B9F1010F4FF0010E6E
:2011800012D94046734630F8021F0FFA82FC0FFA81F8E04503F1010CC8BF9E465FFA8CF36A
:2011A000C8BF0A464B45EED115F80E3007F50078637397F800E6BEF1000F00F0FE800EF1D4
:2011C000FF30C0B208EB400007F5FF73002233F9021F83420A44FAD192FBFEF2E28297F810
:2011E000002640463146FFF72FFFA08097F80096B7F802224FEA5909B9F1010F4FF0010EED
:2012000012D94046734630F8021F0FFA82FC0FFA81F8E04503F1010CC8BF9E465FFA8CF3E9
:20122000C8BF0A464B45EED115F80E3007F54078A37397F800E6BEF1000F00F0C0800EF111
:20124000FF30C0B208EB400007F2FE23002233F9021F83420A44FAD192FBFEF2228397F8A2
:20126000002640463146FFF7EFFEE08097F80096B7F802234FEA5909B9F1010F4FF0010E6C
:2012800012D94046734630F8021F0FFA82FC0FFA81F8E04503F1010CC8BF9E465FFA8CF369
:2012A000C8BF0A464B45EED115F80E3007F58068E37397F800E6BEF1000F00F082800EF15F
:2012C000FF30C0B208EB400007F2FE33002233F9021F83420A44FAD192FBFEF2628397F8D2
:2012E000002640463146FFF7AFFE208197F80096B7F802244FEA5909B9F1010F4FF0010EEA
:2013000012D94046734630F8021F0FFA82FC0FFA81F8E04503F1010CC8BF9E465FFA8CF3E8
:20132000C8BF0A464B45EED115F80E3007F5A068237497F800E6BEF1000F44D00EF1FF302C
:20134000C0B208EB400007F2FE43002233F9021F83420A44FAD192FBFEF2A283314697F8B9
:2013600000264046FFF770FE608197F800C6B7F802254FEA5C0CBCF1010F4FF0010610D9C4
:201380004046334630F8021F17B20FFA81FEBE4503F10107C8BF1E46FBB2C8BF0A4663459E
:2013A000F0D1AB5D637402B0BDE8F087724688E64FF00109ADE67246CEE672460CE77246EE
:2013C0004AE7724688E77246C5E700BF10B504462021074803F004FC2146064803F000FC5C
:2013E0002146BDE810402520202202F0FBBC00BF80B700009CB700002DE9F04F0446B0F9D0
:2014000006E091B0B0F90870B0F90010B0F90220B0F90430B4F912C0B0F90A6090F90C50AC
:2014200094F90EB094F90FA094F9109094F9118090F90D00CDF800E0B4F914E00197B4F9B9
:2014400016700296B4F918600395B4F91A50B4F91C4004900A48CDF824C0CDF828E0CDF870
:2014600014B0CDF818A0CDF81C90CDF820800B970C960D950E9403F0B3FB11B0BDE8F08F47
:20148000B4B7000089B138B54D1EEDB200EB4505841E34F9021F064803F0A2FBAC42F8D1F6
:2014A0000448BDE8384003F09BBB024803F098BBECB70000F4B8000070B504462A4E2B4D3C
:2014C000304603F08DFB2A4803F08AFB94F800162046FFF7D7FF284603F082FB254803F01F
:2014E0007FFB94F8001604F58070FFF7CBFF284603F076FB204803F073FB94F8001604F5F1
:201500000070FFF7BFFF284603F06AFB1B4803F067FB94F8001604F54070FFF7B3FF2846C8
:2015200003F05EFB164803F05BFB94F8001604F58060FFF7A7FF284603F052FB114803F0A7
:201540004FFB94F8001604F5A060FFF79BFF284603F046FB94F800160B4803F041FB3046DA
:20156000BDE8704003F03CBBF4B7000030B8000020B8000034B8000044B8000054B80000CD
:2015800064B8000074B8000084B800002DE9F04104880546A4B1B4F5AE7F0CD1714B164689
:2015A0001B788B421CD0882971D04FF4AE732B800120BDE8F081002303800320BDE8F081C8
:2015C000022000F0E1FA012000F0E8FA2046214602F000FC4FF4AE732B800120BDE8F0812A
:2015E000614B9E425AD0614CA642DED1604C94F800763B0647D476680420B0470028B8BF4F
:20160000FF30001224F81700022094F80076B0470028574BB8BFFF308037001223F81700D0
:20162000012094F80076B0470028B8BFFF30504B07F58077001223F81700202094F80076AE
:20164000B04700EBD070431007F5C07724F81730102094F80076B04700EBD070431007F5DC
:20166000007724F81730202094F80076B04794F8003600EBD070421007F52077013324F835
:20168000172084F800363B4804F024F88DE73A4B9E422CD0374804F039F886E774680020EC
:2016A000A04780460120A047344F02464146344803F096FA97F80080B8F1000F26D1012045
:2016C00000F062FA294C2A4AA36882F800863F21812098472848802104F006F943462548F0
:2016E0000221284A03F0EAFF01233B707CE7204C2046FFF7E1FE012000F05AFA94F8003679
:20170000802B19D91C4804F0F9F8C3E71A48174C04F01AF9174804F015F8A3680021812040
:201720009847134B4FF00008012083F8008600F035FA87F8008057E71349144A144B204628
:20174000FFF7A6FC134803F04BFA0F48FFF754FE114803F045FA00230B4884F80036FFF716
:2017600035FECFE768200020E0BA0000C0BA000090060020940D0020B40D0020F61F002037
:2017800094B80000D90F0000F0050020940C002010060020C4B8000030B80000F0B50027DA
:2017A00006463C463D4683B0304600F0EDF90195019B9C4206DD00BF019B01330193019BA7
:2017C0009C42F8DC304600F0E9F90195019BC4F5C874A34206DA00BF019B01330193019B64
:2017E000A342F8DB0137B7F5487F06D0B7F5C87FCCBFC7F548743C46D6E703B0F0BD00BF5C
:201800002DE9F0416E4C86B023686E4801215B689847236801210A461B686A48984704F087
:20182000AFFD02F0DFF902F077F900F0E3FF02F0AFF900F09FF964496448654A012303604D
:201840000B6018461368FFF7A9FF04F09DFD01F059FC01F0CBFB04F009FA01F047FD04F0FB
:2018600033F941F2342004F047FC01F0E5FE04F0A1FA584801F076FD00214BF2AC725648FD
:2018800003F0AEF9554801F06DFD04F0D9FC544C544D10F0040F14BFA046A84604F0D8FC2A
:2018A00001280CBF26462E4604F0CAFC10F0020F14BF27462F4604F0C3FC10F0080F08BF43
:2018C0002C4632463B4641460094474803F088F90021464804F09EF903F0B6FE03F04CFF60
:2018E0000220FFF75BFF424803F07AF9414B424C186801F037FD414803F072F9404B1868D5
:2019000001F030FD3F4803F06BF921683E4803F067F9E469A04720B1A04701463B4803F0C0
:201920005FF90A2001F016FD002705F065F804A80821374D039701F04DFD9DF81730354A1F
:20194000BDF816109DF81640118043EA0424EE6A4AF6CD310220B04721460320B047192171
:201960000120B047082204A96B6B0B209847AB6A03A9012098470399274803F031F9274B3D
:20198000214627481C8003F02BF90220FFF706FF3946244804F03EF9234803F0FFFD01F040
:2019A000B3FC0120FFF7FAFE04F0A8F8044601F0C3FC14F0FF0FF7D101F074FFF4E700BF03
:2019C000D801001000400340080009400C4009402C20094070B9000094B90000ACB9000045
:2019E00068B900006CB90000C0B900000C050020F4B90000D4BC000014BD0000FCB9000034
:201A0000ECBC000004BA00000CBA000010BA000088BB00002820002034BA0000E81F002010
:201A200048BA00003804002050B700002DE9F04104880646772C30D07E2C27D024B10023E6
:201A400003800320BDE8F08104F036F82F4F304B304D3A6818702C60002A45D02346A046EE
:201A60002D4C04F8038093688020002198472B68013357F823202B60002AF2D1DBB2274A04
:201A80001370772333800120BDE8F081204B1B788B4219D00120BDE8F081DFF880801D4D13
:201AA00098F800201E4F002393423B602B6007DA194CE156002919DB013393422B60F7DBEB
:201AC0003B68002BEFD1DCE7124D134CDFF84C80134F2B683A68E05C511C00F07F0098F815
:201AE0000020E0543960E7E71346C8E70849074A097852F82320002004F060F80028E8D126
:201B00007E2333800120BDE8F08100BF4804002068200020C80D002018200020F71F0020E4
:201B2000C40D002010B40F4B1C7864B10E4A1368984214D0002303E052F8041F88420CD043
:201B40000133A342F8D1094A0948135D63F07F0313555DF8044B04F07DB81C46F3E7002425
:201B6000F1E700BFF71F002048040020182000203804002008B500F025F8024B00221A70B5
:201B800008BD00BFF81F0020034A137803431846137000F033B800BFF81F0020034A1378E2
:201BA00023EA00031846137000F028B8F81F0020034A137843401846137000F01FB800BF6B
:201BC000F81F00200A4B1A6802B1704710B50122084C1A6023680A20DB6B984723680F2043
:201BE000DB6B9847044B4FF404421A6010BD00BFCC0D0020B4010010A0200240094B0A497B
:201C00004FF4044208701A60C20744BF4FF4806243F8102C830703D5044B4FF400421A6031
:201C2000704700BFA0200240F91F002090200240813801289ABF024B18680020704700BF64
:201C4000140E0020024B032202481A60FFF76ABF140E002068BA000010B5044682B07721B0
:201C6000002001F045F94CB98DF807400DF107010122F42006F0D8FA02B010BD25238DF8F3
:201C80000730F3E730B5802885B016D0812810D11D4C206878B151B30120FFF7DDFF1B488D
:201CA00003211B4A002303F009FD0220206005B030BD154B186805B030BD134C0125002014
:201CC0007721256001F014F912491C22882006F09DFA04A9B62301F8013D2A46E02006F0F8
:201CE000A3FA0020FFF7B8FF206805B030BD0748019103F027FD01990846FFF7ADFF0123AA
:201D00001846236005B030BD140E0020F40D0020451C0000D80D0020F8B5534B1B68032B7B
:201D200040F09A80431E012B00F296804F4C00237721054623601846A38001F0D9F82146F6
:201D4000F720062206F062FA00287ED0E178484A23796079090341EA0311168841EA1013E5
:201D6000C6EB131101FB01F1B2F9047076000913B2F90200C6EBD30307FB01F100FB03F0D9
:201D8000891301EBE0204710A7F57A4E4FEAAE0606FB06F6B2F90810B2F90A70731301FBAC
:201DA0000EF103FB07F3B2F90E70491007FB0EF701EBE303B2F806C09B14B2F910E003F51F
:201DC0000043F61279000CFB03F30EFB061726786178B2F90CE094F802C036034FEA0E44FC
:201DE00046EA0111DB13906104EBA70741EA1C1127D040F635444942A1EB273104FB01F1C7
:201E000001F1434101F5A0010029B3BFB1FBF3F34900B1FBF3F35B00D90801FB01F1B2F9D8
:201E20001440B2F916609F08490B04FB07F401FB06F1B2F91260621302EB2131314403EB11
:201E40002113012D0BD01846F8BD2046062106F007FA4FF00040F8BD4FF00040F8BD00EB5B
:201E6000800080300012F8BD140E0020D00D0020D80D0020813801289ABF024B18680020FF
:201E8000704700BF3C0E0020024B032202481A60FFF748BE3C0E002078BA000010B5044685
:201EA0004421002001F024F8002C064B14BF1024002402201C801946BDE81040024606F098
:201EC000B3B900BFEA1F002010B5802882B017D0812811D11D4C206880B1002929D0012038
:201EE000FFF7DCFF1A4824211A4A002303F0E6FB0220206002B010BD144B186802B010BD90
:201F0000154C012023689B6B9847236801209B694FF48041984723684FF08041DB6901204C
:201F200098470020FFF7BAFF084B0120186002B010BD0748019103F005FC01990846FFF7D5
:201F4000ADFF01231846236002B010BD3C0E00201C0E0020891E0000B401001038B5344BC5
:201F60001B68032B07D1820705D003280FD0012805D0022807D04FF00043184638BD2D4B24
:201F80001B68184638BD2C4B1B68184638BD2B4D44210446002000F0ABFF29460420022286
:201FA00006F034F970BB264D2548042106F058F900202C786B78A978EA7843EA042442EADC
:201FC00001220028D7D0900808F0D6FD4FF0745108F026FE1B4908F023FE08F071FF154B47
:201FE000154D1860A00808F0C7FD4FF0745108F017FE144908F014FE08F062FF0123286026
:20200000184638BD2B885BBA2B805B040C4DCBD501202946022206F0F9F80028C4D02046E5
:20202000A91C022206F0F2F80028C2D1BCE700BF3C0E0020180E0020440E0020EA1F00206F
:20204000400E002000007A44014B1868704700BF680E002070B506460E4C82B000204521F9
:20206000256800F045FF76B905F002054FF486532560ADF806300DF106010222012006F0B8
:20208000D3F802B070BD41F2C2020123ADF806202360F0E7680E002000B5002083B0452152
:2020A00000F026FF01200DF10601022206F0AEF8BDF90630002B08DB08481021084A002335
:2020C00003F0FCFA03B05DF804FB0648FFF72AFD054B02221A6003B05DF804FB480E00203A
:2020E0009920000098BA0000680E0020802810B50DD0812809D10C4671B90D4803F022FB91
:202100002046FFF7A7FF204610BD002010BD0020FFF7A0FF002010BD0120FFF79BFF0448FE
:202120001021044A002303F0C9FA012010BD00BF480E002099200000813801289ABF024BE3
:2021400018680020704700BF8C0E002038B5114C114A237803211160ABB1104D002043219D
:2021600000F0C6FE0421284600F050FD20700020014600F0BDFE2A886B880948094952BAE5
:202180005BBA02800B80012323700748BDE83840FFF7C8BCFA1F00208C0E0020900E0020CF
:2021A000EC1F0020EE1F0020A8BA000030B5802883B023D081281DD1234C2068E0B100296A
:2021C0003AD0224D2B785BB14321002000F090FE002000F0E3FC28700020014600F088FE71
:2021E0001B4803211B4A002303F068FA0220206003B030BD144B186803B030BD164B002435
:20220000164A174D20461C60432114802C8000F06FFE02A91023022021F8023D024606F081
:2022200003F80A4B21461870204600F061FE064B0120186003B030BD054803F083FA01233F
:202240001846236003B030BD8C0E0020FA1F00206C0E00204D210000900E0020EE1F002017
:20226000EC1F002008B5174B1B78032B28D8DFE803F01E150C0208F075F800224FF07D53C2
:2022800008F0D6F808F06EFB08BD08F06BF800220D4B08F0CDF808F065FB08BD08F062F851
:2022A00000220A4B08F0C4F808F05CFB08BD08F059F80022064B08F0BBF808F053FB08BD6D
:2022C000002008BDFE1F00200000303F0000203F0000103F813801289ABF024B1868002097
:2022E000704700BFBC0E0020024B022202481A60FFF718BCBC0E0020C0BA000010B50C4CFE
:202300000120682100F0F4FD3F23214601226C20237005F089FF21464F236B200122237090
:2023200005F082FFBDE810400020014600F0E0BDFF1F0020802838B50BD0812806D111F00F
:202340003F012DD1294B1B68DB043BD4284B186838BD284C072023689B6B984723680720B5
:202360009B694FF40051984723684FF080410720DB69984723680C20DB6B984723680C207E
:202380009B6A4FF480614FF4407298471A4A4FF480501A4B1060164900221A60086838BD94
:2023A0001648174B124D4FF48052016001241A6014480821144A00232C6003F07FF92C6060
:2023C000204638BD0D4B0F48196003F0BBF9FFF795FF0E4A136813F00103FBD1044A064906
:2023E0004FF4805013600860106838BD80200240BC0E0020B4010010A0200240C00E002001
:20240000902002409C0E0020392400000428004010B5084C0120682100F06AFD2146012293
:202420003A2005F0F3FE0020014600F061FD207810BD00BFFB1F00202DE9F041354C2368F6
:2024400013F0380F15D1344D03F03F042E7856B94CBBFFF753FFBDE8F04130480521304AA3
:20246000002303F02BB9E3B22B70002CF1D02D4F3DE02D4E3278002AE5D02C4F00250120E7
:2024800068213D7000F034FD394601221C2005F0CBFE07462946284600F02AFD2368002F4E
:2024A000D1D03570CFE71F4F0120682100F020FD0923394601226B203B7005F0B5FE3F23ED
:2024C000394601226C203B7005F0AEFE174901221C202E7005F0A8FE394601223A2005F099
:2024E00095FE3046314600F003FDE3B22B70DB43012068213B7000F0FBFC012209496C20E1
:2025000005F092FE0020014600F0F2FC084803F03FFFA0E7C00E0020FD1F00209C0E0020F5
:20252000E9220000FF1F0020FE1F0020FC1F00208038010008B5034B1B685B689847C0F33E
:20254000804008BDB401001028B1012806BF054BD86800207047044B186800F0010080F0D3
:2025600001007047C40E0020C020024008B100207047034B1868C0F3001080F00100704746
:20258000C0200240813801284FF0000000D97047FFF7D0BF8138012801D90020704704202C
:2025A000FFF7C8BF802870B514460AD0812807D1E1B9BDE87040184B10461B685B6B1847CC
:2025C00070BD154D1549012393402A680B60936B204698472B68204600211B68104A984701
:2025E000E0B21049BDE8704001F0BCBA0A4D0B49012393402A680B60936B204698472B68BF
:2026000020461B680021064A98472B682046BDE870401B6B184700BFB4010010E020024088
:20262000004007204126000008B50022FFF7BAFF012008BD08B50422FFF7B4FF012008BDE6
:2026400038B510B1042814D038BD134C204603F04DFB0028F8D02046042103F033FB0F4BD1
:202660001B6813F001050CD100F00CFDE560A06038BD4FF480414FF08052BDE8384001F09B
:2026800039B800F0FFFCA368C31AE3600448BDE83840FFF747BA00BFC40E0020C020024000
:2026A000E0BA0000024B1868C0F3C000704700BFC02002408138012801D90020704708B558
:2026C000034B03201B685B689847C0F3804008BDB4010010802810B509D0812805D1134B44
:2026E00003201B68E9B95B6B9847012010BD0F4C032023685B6B98470D4B0E4A1B680821F5
:202700001160DB694FF4A060984723680A4A1B680320002198470320084901F023FA0120BA
:2027200010BD1B6B9847012010BD00BFB4010010B8010010E020024000200320412700003F
:2027400008B5074803F0D2FA00B908BD0548FFF7E9F9BDE808400248402103F0B3BA00BF54
:20276000D40E002008BB000010B5064C042023685B699847236804205B6B98470128F9D1E4
:2027800010BD00BFB8010010FFF7EEBF032801D000F016B908B505F043FE104B00219B6814
:2027A000812098470E4B00219B68812098470D4B00219B68812098470B4B00219B68812085
:2027C00098470A4B81209B6800219847084B4FF480521A60BDE8084000F0F2B868BA000096
:2027E00098BA000078BA0000A8BA0000C0BA0000A020024070B503F0C3FD0646FFF7B4FFAA
:202800003C4B4FF4A0601B68DB6998473A4B01213A4A196013689B07FCD5394C00F0A2F8A7
:2028200005F0F8FD05F0ECFD364801F069F9236819209B6B984723684FF4005119209B69FA
:202840009847236818209B6B984723684FF4005118209B699847236817209B6B9847236885
:202860004FF4005117209B69984723681B209B6B984723684FF400511B209B699847236837
:202880001E209B6B984723684FF480411E209B69984723680D20DB6B98471B4A4FF400558B
:2028A0002368156000214FF480729B6A0D209847236802209B6B9847236829469B690220FF
:2028C000984723680B209B6B9847236829469B690B20984723681D209B6B984723682946CF
:2028E0009B691D20984706B170BDBDE8704003F04BBD00BFB80100102820086028200840BC
:20290000B40100106C040020A020024010B5094B09481B685B68984710F00C0F044605D097
:20292000064B04221A60022003F032FDB4FA84F0400910BDAC0100100020004004280040A1
:2029400008B5064B02201B685B6B9847012803BF034B186800F00100002008BDB8010010C7
:202960006020084070B5104D02202B685B6998472B6802205B6B9847012804460A4BF7D1CB
:202980001B684FF44070DB699847084B084A1C6013689B07FCD5074B07481B6807491B6898
:2029A0000122BDE870401847B80100102820086028200840AC01001000200040006CDC02D0
:2029C000214B10B5FF221A70FFF7BAFF20B11F491F4A00230B6013601E4B4FF440701B68EA
:2029E0001B6A98471C4B01211C4A196013689B07FCD51B4C082023689B6B984723684FF450
:202A0000005108209B699847236809209B6B984723684FF4005109209B69984723680520E6
:202A20009B6B984723684FF4804105209B699847236806209B6B9847236806209B694FF48C
:202A40008041BDE810401847B60500200428004010040542B80100102820086028200840B6
:202A6000B40100102DE9F0470646484B48481B78484A5B00036033780F46136000F040FB54
:202A8000DFF8148100F5CC551935D8F80030424C5B0624D403232360022003F079FC00F05C
:202AA0002FFB00F5CC5519352368D8071FD4FFF72DFF012F03463DD9B0B1DFF8D880364D67
:202AC000013607F1FF39022416F8012B631E4B45C8F8002011D3BC422ED20134F4E700F05C
:202AE0000FFB401B0028D0DB0020BDE8F08700F007FB401B0028D7DBF6E701232B6002208D
:202B000003F046FC00F0FCFA00F5CC5A0AF1190A2B68D90707D4FFF7F9FEBC42034609D204
:202B20000028DAD1E0E700F0EBFACAEB00000028EEDBD9E7002BD7D0174C052323600220BE
:202B400003F026FC00F0DCFA00F5CC5519352368DA0711D4FFF7DAFE044600F0D1FA0E4EB6
:202B600000F5CC55193533685B060BD500F0C8FA401B0028F7DBB7E700F0C2FA401B002841
:202B8000E5DBB1E72046BDE8F08700BF0020002000280040082800400428004070B5174B91
:202BA00017491B78174A5B000B60106000F0A8FA154E00F5CC5519353368134C5A0612D4F2
:202BC00007232360022003F0E3FB00F099FA00F5CC5519352368DB070CD500F091FA401B4A
:202BE0000028F7DB04E000F08BFA401B0028E3DB002070BDBDE87040FFF788BE0020002023
:202C00000028004008280040042800402DE9F04F404B414A1B7883B05B0043F0010313603A
:202C200005460E4600F06CFA3C4F00F5CC5419343B683A4A13F040032BD11746BA460B21C0
:202C400011600220DFF8D8901C4606F1FF3803F09FFB012244452CDA02B300F051FA00F5EE
:202C6000CC5B0BF1190B3B68D9071BD4FFF74EFE02460028EED00192D9F80010092329550D
:202C80000220CAF8003003F083FB631CDCB2019AE0E700F035FA001B0028C9DB002003B067
:202CA000BDE8F08F00F02CFACBEB00000028DADBF4E7002AF2D0194C05232360022003F05B
:202CC00067FB00F01DFA00F5CC5719372368DA0717D4FFF71BFE0028E0D0114B35441B688D
:202CE0000E4E05F8013C00F00BFA00F5CC54193433685B060BD500F003FA001B0028F7DB09
:202D0000CCE700F0FDF9C01B0028DFDBC6E70120C5E700BF00200020002800400428004010
:202D2000082800402DE9F04F81466D4D6D4E28786D4C4000306099F8000083B020608A4655
:202D400016461F4600F0DCF9DFF8A0B100F5CC5808F11908DBF80030644C5A063BD403234A
:202D60002360022003F014FB00F0CAF900F5CC5808F119082368DB0737D4FFF7C7FDBAF1E9
:202D8000010F03463FD960B309EB0A03DFF858B1DFF85881019309F101044FF0010A14F835
:202DA000013B0220CBF80030C8F800A003F0F0FA00F0A6F900F5CC5909F11909D8F80030C0
:202DC000D80719D4FFF7A2FD019A034694421AD00028E4D105E000F093F9C8EB00000028D5
:202DE000B8DB002003B0BDE8F08F00F089F9C8EB00000028BEDBF4E700F082F9C9EB000069
:202E00000028DBDBEDE70193002BEAD037492A780C463448520042F001020B2502600D6011
:202E2000022003F0B5FAA24607F1FF390025DFF8B880019B03E0FFF769FD034698B9A9451F
:202E40001ED9002BCDD000F05BF900F5CC5B0BF1190B2368D907EED500F052F9CBEB000014
:202E60000028F6DBBDE70193D8F80010092271550220CAF8002003F08BFA0135019BDEE73D
:202E8000002BAED0194C05232360022003F080FA00F036F900F5CC5519352368DA0705D521
:202EA00000F02EF9401B0028F7DB9AE7FFF72EFD002896D00C4B3E441B680C4D06F8013C86
:202EC00000F01EF900F5CC5419342B685B0601D4012087E700F014F9001B0028F5DB80E7BA
:202EE000002000200028004008280040042800402E4B10B504461970FFF722FDB0B12C4B50
:202F00001A78A24218D02B482B4900221C7002600A601B788BB1012B2BD0BDE81040274B95
:202F200027481B6827491B6801221847FFF71AFD1F4B1A78A242E6D110BD234C052023689A
:202F40004FF4C0419B699847236806209B694FF4C04198472368052106221948DB6C984712
:202F6000236808209B6B9847236809209B6B9847D3E7154C082023684FF4C0419B6998472B
:202F8000236809209B694FF4C04198472368082109220B48DB6C9847236805209B6B984769
:202FA000236806209B6B9847B7E700BF00200020B60500200428004010040542AC0100107F
:202FC00000200040006CDC02B401001010B5064C042023685B699847236804205B6B9847C5
:202FE0000128F9D110BD00BFB8010010F8B51A4A00200021C2E90001184B04201B685B6BBB
:203000009847012801D0FFF7E1FF144B00201B68DB699847124B0121124A196013689B076B
:20302000FCD5114A11491368096823F4807323F001030F4C13600B6820460E49984740F2EE
:2030400021200D4D0D490E4B04273126012227602E6008601A60F8BDC0050020B801001027
:2030600028200860282008400C000140C801001000000140002100043C00014008000140BE
:203080000400244310B40949094C0B68226808688342FAD1DB01074903EB52620023C1E9C2
:2030A00000235DF8044BD1E900017047082009400C200940C005002010B50B490B4C0B6829
:2030C000226808688342FAD1DB01094903EB52620023C1E9002302F025FC00B910BDBDE868
:2030E000104002F0FBBB00BF082009400C200940C0050020704700BF0146012000F052B876
:2031000003F08CB82DE9F04103F03AF91D4E1E4B1E4F32680124002580464FF480314FF4E9
:2031200080703D601C60186019601368284623219847336820461B68242198473368022024
:203140001B6825219847124A1249136843F4E02313600D6003F062F80F4B1049104A1B689E
:2031600000F50070086014603C601B6914209847B8F1000F01D0BDE8F081BDE8F04103F073
:2031800003B900BF8401001004200940000024430020094008200940B00100101C2009402B
:2031A000A0022443431E012B10B41BD9042802D05DF8044B704700231A4610F004001CBF06
:2031C0000E4C216013B10E4B0121196012B10D4B01221A600028EBD00B4B01221A605DF879
:2031E000044B704710F0010302D0084A0123116010F00202E1D0064C2160DEE72020094036
:2032000080022443A0022443C0022443182009401C200940014B1868704700BFDC0E002041
:2032200008B5FFF76DFF184B1860FFF745FF174B1B686BB9164B1B68E3B9164B1B6833B109
:203240001549164B00204FF4803208601A6008BD124B4FF480721A6002F0E0FF00F20520FF
:203260000F4B20F4FF7020F001001860084B1B68002BE2D00B49094B0020012208601A6068
:2032800002F00CFDD9E700BFDC0E0020A000244380002443C0002443C002244304200940FF
:2032A0001C20094080022443820702D5034B01221A60C30700D4704703F066B8000C08409B
:2032C00008B503F05DF8074B1A68012A03BF0649022219600022002814BF104642F0010096
:2032E00008BD00BF000C084051E5CC1A03490448044B012208601A60704700BF0000084030
:20330000FFFF0F00000C084038B5FFF7D9FF064C064D0749074A012325600B601360BDE81F
:203320003840FFF7C1BF00BF00000840FFFF0F000C0008400401004303490448044B0122E5
:2033400008601A60704700BF00000840FFFF0F000C00084010B50446C0B200F081F920461B
:2033600010BD00BF70B506460024451E04E015F8010F00F075F90134304608F09BF984426D
:20338000F5D30A2000F06CF900F07EF90128FBD0204670BD70B50446B0B10078C0B1A9B1E5
:2033A0000025661804E014F8010F38B1B44205D000F056F9631C05F10105F4D100F064F9EA
:2033C0000128FBD0284670BD0546F7E70D46F5E70546F3E710B40B4B0B4C13F8012FFF2A0C
:2033E0000ED1A342F9D1094A39B11144013801390B78914200F8013FF9D15DF8044B704787
:20340000034AF1E7C7FF0100CFFF0100F0120050C8FF010038B50C4D02202B685B69984739
:203420002B6802205B6B984701280446064BF7D11B684FF40070DB699847044B044A1C6034
:2034400013689B07FCD538BDB801001028200860282008402DE9F04340F2F275DFF8E08067
:2034600083B0FFF7D7FFD8F800302B4EDB682B48984733682A4C5B69152098472368DFF8F4
:20348000C490284F23F4FE63D9F8002023F0020323603D60D36B1D2098472349D9F8002009
:2034A0004FF0FF334FF0005008600093D2F840C01A481C211D22E047D8F800301748D3F818
:2034C00004C01A494FF4E1326023E04740F2011240F2013E1649174B1420086019681648D3
:2034E00041F01001196003681449002B0CBF134673460B603D60036853B12368326843F072
:20350000500323601369152003B0BDE8F043184703B0BDE8F08300BFB0010010001000409F
:20352000381000404410004090200240006CDC02341000402C100040E00E002030100040A5
:20354000D0010010B401001008B5064B02201B685B6B9847012803BF034B186800F00100C3
:20356000002008BDB80100106C20084038B50446FFF7EAFF18B1264A13681907FCD4032CE0
:2035800003D0244B1B6803B138BDFFF7DDFFF0B9214D4FF400702B681B6A9847032C2CD0FF
:2035A0001E4B01211E4A196013689B07FCD51D2000F0C2FA1C2000F0BFFA4FF0FF3000F085
:2035C000BBFABDE838404FF0FF3000F0B5BA154B15481B68DB689847144B15201B685B690F
:2035E000984740F2F270124A1249136823F4FE6323F0020313600860CAE72B684FF40070C4
:203600009B6A98472B684FF400701B6B9847C7E718100040E00E0020B8010010282008607E
:2036200028200840D001001000100040B0010010381000404410004010B502F0A1FE04464C
:20364000054800F05DFA054B00221A6004B110BDBDE8104002F098BE80040020E00E002079
:2036600010B50446FFF770FF08B9FFF7F3FE044B2146BDE810401B680248DB69184700BF54
:20368000D00100100010004008B5FFF75DFF18B1024B1868C0F3C00008BD00BF18100040F5
:2036A00038B5FFF7B7FE40F2F2710C4B0C4A1B68116013F0500F10D00A4C0B4D05E02B68D4
:2036C0001B699847094B1B6823B923680848DB06F5D538BDC0B29847F7E738BD40100040A5
:2036E0004410004018100040D0010010E00E0020001000402DE9F0474FF000094C4682B036
:2037000040230F46164601930546CDF8009002F037FE4A4BDFF864E101204FF480714FF4F1
:203720008032DFF85C81CEF80090186019601A60D8F8003020461B6801343F219847042CD5
:20374000F6D1DFF83C810024D8F8003020469B6801343F219847032CF6D1394B1B68FFF71A
:20376000EBFD384802F058FC044630B1A368032003B198472468002CF8D16B1C0CD0324B4E
:20378000AA0013430021314A1960136846F000523A4328461B6898472D4EDFF8E8A00024C6
:2037A0003368CAF800409B6907209847684604F00BF900F08FFA00F03DFA264826490368D4
:2037C000326823F0030303600B68244D23F00F030B609369382098472C60012004F014F97E
:2037E000DFF8A490DFF8A4E01D481E491E4B1F4A4FF00108124F2C60C9F80040CEF8008049
:2038000004600C60CAF800401C603B6818491368096823F0030313604B68164803219847CA
:20382000154A33682C60C9F80040C2F800809B6B3A68984702B0BDE8F08700BF0420094046
:203840002C200940E40E0020001A4442B4010010B801001000100940081009404010094040
:2038600040012243440122430800094024220840D8010010004003401810094000002443D5
:20388000840100100C4009402004224388010443034A136823F00403136030BF704700BFEB
:2038A00010ED00E070B502F06BFD02F07DF918B1BDE8704002F068BD814802F0ADFB022585
:2038C000044648B1636823B19847A84228BF2846C5B22468002CF5D1FFF712FC794B0446E1
:2038E0001B68002B40F08B8002F01CF8002840F09280012D014600F0D680022DD8D10028B4
:2039000040F0C3802846611EFFF74CFC6C4802F083FB06250446002800F0B080A3680220FB
:2039200003B198472369246825EA0305002CF5D1FFF702FD6B0705F0060400F1A280002C2E
:2039400040F0A78000F0C6F9002004F05DF85E495E4A0B685E4823F003030B601368016828
:2039600043F00F0313608B6939209847594A5A4900231360184613600B6002F087FE062CA2
:2039800000F08D80554C564D564E2B682368326823F00303236053685348032198474C4BFE
:2039A0001B689B6B98472B6802F0AAFF4F4A3368002111604C485B680121984723684C4A32
:2039C000012143F00303236011602B6802F0CAFF03F0E6FFFFF770FBFFF7AEFC384802F0FF
:2039E0001BFB044628B1E36803B198472468002CF9D102F0C9FCBDE8704002F0C5BC3D4B27
:203A00001B681B1A022B34D4A3F28F23002BBFF66BAF01232EE001F08DFF0646FFF732FB5A
:203A2000361A002E7FF744AFFFF7F4FB324B00EB46211B1BCB423CD4012085427FF45DAF31
:203A40006FF007031B1BCB4230D404F58034631A31EA230128BF21460220FFF7A3FB274AD8
:203A6000136823F00403136030BFBDE8704002F08BBC00239D4228BF1D4635E7FFF75CFC0B
:203A800006241B4B00221A6059E72846FFF78AFB3CE70F4B20461B689B69984752E702202D
:203AA00002F018FD6EE704F58031D5E704F10801D2E7022DC4D0012D7FF4FAAEC0E700BF1B
:203AC000E40E0020800224430010094008100940B8010010401009402004224324220840B8
:203AE0002C200940D801001000400340800104430C4009401820094071FDFFFF10ED00E09E
:203B00000146014802F08ABAE40E00200146014802F0C8BAE40E002010B5054802F078FA41
:203B2000BDE81040034B03201B6820211B681847E40E002084010010421C0ED010B5044687
:203B4000064B4FF4C0421B6800211B689847044AA3001A430023136010BD7047B40100109C
:203B6000001A444238B504460D4602F009FC01230549064AA3400B6042F8245000B138BDC0
:203B8000BDE8384002F000BCE0200240E80E0020064B002103F1800243F8041F9342FBD11B
:203BA000034B10201B681B69184700BFE40E0020B0010010F8B5094B094F1D6800241D6010
:203BC000012606FA04F32B42E0B203D057F8243003B198470134202CF3D1F8BDE020024083
:203BE000E80E002000B585B00022412302A80292039303F0E9FE042002F05AFC032810D01A
:203C00000420032102F02CFC042002F051FC0328FAD10090002106484FF040521C2302F0E8
:203C2000D5FB02A803F026FF05B05DF804FB00BF00A00C4000B583B00022412368468DE8AD
:203C40000C0003F0C1FE042002F032FC022808D00420022102F004FC042002F029FC0228C2
:203C6000FAD1684603F006FF03B05DF804FB00BF00B583B00022412368468DE80C0003F07D
:203C8000A3FE012002F014FC012803D00320012102F0E6FB684603F0EDFE03B05DF804FBB9
:203CA00000B583B00022412368468DE80C0003F08BFE012002F0FCFB012803D0044B986B93
:203CC00002F096FA684603F0D5FE03B05DF804FB4800001010B582B04123684600240193CE
:203CE000009403F071FE0320214602F0B9FB012002F0DEFB18B1044B986B02F079FA684684
:203D000003F0B8FE02B010BD4800001030B549F2303589B002A8182140F6020204F040FF15
:203D20009DF818300F4A03F0F8036FF3C30302A8002401A98DF81830ADF81A5007928DF8C5
:203D4000164004F0D9FC012802D0204609B030BD02A804F023FDA0F10100B0FA80F040098A
:203D600009B030BD94040020F0B541F60506164BDFF85CE0154F89B00022012505925A6054
:203D80008DF8160099719A611A60DA605A6102A801A9C3F810E09F60DD76DD610292069358
:203DA0000392049207928DF81550ADF8086004F0A3FC30B102A804F0F1FC401BB0FA80F0D4
:203DC000400909B0F0BD00BFC00F0020680F002028200020704700BF014B1878704700BFBF
:203DE000012000202DE9F04791460E46474C82B020460021402207F00FFC4FF0010C0923E2
:203E0000434F31464FF01A0E09EB0C06601D4A46404D4FF0020AE670237184F800A084F8C5
:203E200001C084F802E007F081FB09F105030022B846394C394E3B602A601DE0B3699847A5
:203E4000002841D104F0C2FEFFF760FF012851D001A9334804F050FC04F0C2FE31480C2116
:203E600001F042FD02F08CFA0023237028B32B680133092B2B6027DC02F082FA012323705B
:203E8000C0B104F031FC0028D8D1FFF7F1FE04F00DFE012818D1FFF703FFFFF737FF01287C
:203EA0001CD001A91E4804F027FC04F067FDFFF711FFD3E702F068FAE3E702F065FA2B68D5
:203EC0000133092B2B60D7DD02F05AFA0023237008B902F059FA02B0BDE8F0872520396885
:203EE000FFF742FF0128DCD1D8F800102620FFF73BFFD6E725203968FFF736FF0128A7D1F0
:203F0000D8F800102620FFF72FFFA1E7680F0020A80F0020BC0F00200120002088BB0000F2
:203F200001000204AC0F002008B504F0DDFB30B1044B5B88022B0CBF0120022008BD0220E1
:203F400008BD00BF6412002070B582B004F0CCFB40B9144801A904F0CFFB01280AD0002055
:203F600002B070BD0F4C6388022B08BF0120F0D102B070BDFFF7C4F80A4C00F1400504E045
:203F8000FFF7BEF8401B002809DA6088054E0228F6D1A0F10200B0FA80F04009E8E7708826
:203FA000F7E700BF6412002008B50346B32994BF0A46B4220248194607F0B8FA002008BD3C
:203FC000F612002030B589B002A8182140F6020204F0E6FD124A9DF81830126803F0F80306
:203FE0009588104C6FF3C303012202A801A9ADF81A508DF8183007948DF8162004F07CFB0C
:20400000012802D0002009B030BD02A804F0C6FBA0F10100B0FA80F0400909B030BD00BF26
:20402000F0040020C404002008B5FFF7CBFF012801D0002008BDFFF787FFC0B208BD00BFB6
:2040400070B50E4D0E4E2C68002006E02379022B06D024682B68A3420ED02379032BF5D1D9
:2040600033780120002BF4D1064801F0F3FD24682B680120A342F0D170BD00BF3012002021
:2040800002200020A005002030B583B004F082FD044604F029FB08B903B030BD0A4801A9CF
:2040A00004F02AFB0128F7D1FFF72AF800F1400504E0FFF725F8401B0028EDDA638803F485
:2040C0004063002BF5D0E7E7010001040B2807D00C2801D001207047042A11D002207047AA
:2040E000082AFBD10029F9D0094B0139A3F1080013F8012D834201F8012FF9D100207047DE
:204100000029EBD0034B00201B680B60704700BF941200202C12002010B584B004F0E4FAFA
:2041200008B904B010BD42F20343002402A801A902940394ADF8083004F0DEFA0028F0D08D
:204140009DF90A30803302D0204604B010BD9DF80C0000F00C00A0F10400B0FA80F040098E
:20416000DFE700BF30B583B004F0BEFA48B3164C6388022B25D1FFF7CFFF0028FBD101A929
:20418000124804F0B9FAFEF7BBFF00F1400507E06388022B08D1FEF7B3FF401B002803DA5A
:2041A00004F0A2FA0028F3D142F202426388934207D042F20740181AB0FA80F0400903B0B1
:2041C00030BD012003B030BD64120020010001040B2801D001207047082A01D002207047DD
:2041E0000029FBD0104B083103F1080011F8012D03F8012F8342F9D110B504F075FA88B1E9
:204200000A4B5B88022B0CD1FFF7ACFF01280CBF00240324FFF798FE01280CBF2046032073
:2042200010BD002010BD00BF8B1200206412002030B585B004F058FA18B1104B5B88022B1E
:2042400002D0FF2005B030BD4FF0000242F2034563F301028DF80C2000249DF80C0000F04F
:204260000303022BEED102A801A902940394ADF8085004F041FA0028EFD1E2E76412002058
:2042800070B5044604F030FAC8B1184B5B88022B20D102F075F8054694B9154B154C1E6876
:2042A000002116F1804022684FF0000341F10001994208BF90420FD326603DB1012070BDFF
:2042C0000B4A0C4B12681A60002DF7D102F05CF8012070BD002070BDFEF712FF064A0749C2
:2042E0001368086001331360E6E700BF641200200430044058120020E00F0020601200206F
:2043000008B5FFF769FD012809D004F0EDF930B1074B5B88022B02D1FFF7FEFE08B10020C7
:2043200008BDFFF785FFFF28F9D0C0F3801008BD6412002010B5FFF74FFD012823D0FFF797
:20434000EBFE04460028FAD1FFF70CFF04F016FBFFF7C0FC0D4B0E491A794C80022A08BF7E
:204360001C710C4B1A79022A04BF00221A710A4B1A79022A04BF00221A71084B1A79022A94
:2043800004BF00221A71012010BD00BFE40F002064120020741000200411002094110020B9
:2043A000F8B5FFF719FD012832D0FFF761FC04F09BF948BB1F4A20482049214B92F805C046
:2043C00090F805E04F795E790125882465F3830C65F3830E65F3830765F3830682F805C02D
:2043E000106080F805E00160C480D480CC804F710B601A60DC805E71FFF752FC04F056FB52
:20440000A84207D00020F8BD0E4B5B88022BD1D10120F8BD0C4B1878003018BF012004F022
:204420005FFBFFF7CFFD0128ECD1BDE8F840FFF78BBD00BFE40F00207410002004110020B4
:2044400094110020641200200220002070B584B0072800F2A380DFE800F01E60252E315B0E
:204460006B044F4C217704F03FF908B36388022B1ED1FFF777FE01280CBF0024032404F00E
:2044800023FB012875D0FFF75FFD01280CBF2046032004B070BD012975D000296DD00220E9
:2044A00004B070BD3E4C618604F01EF90028DDD1002004B070BD3A4C2186D4E731F00702B6
:2044C000EDD1374C3748237EC1F3400561F30003DBB243F00203067865F38203657EC1F374
:2044E000800103F0870362F3C71362F3C7158E42657623760170B6D12B4B228B184603A9F5
:204500005A8004F0F9F800280CBF03200020C0E731F00103C3D1C8B2BBE7A1F10B030F2B50
:20452000BDD81F4CC9B2A37B8B42C1D0A1739AE701F115031A2BB2D81C4D0C2455F83430CC
:204540001A4899424FEAC40224DD14F1FF34F5D204F0CAF800289CD005EBC404A2881023C0
:2045600003A802A9ADF80E20ADF80C3004F0C4F89EE70020FFF784FE85E70191FFF7DAFE98
:204580000199084685E7FFF70BFF012814BF032000207EE7064B02441A60D9E7012078E7D2
:2045A00064120020022000202412002018BB0000F004002081B1F0B50C4685B0102800F25E
:2045C0009E80DFE800F089847F7A6360965A28221D9C9C1915100B000220704705230B60F9
:2045E000002005B0F0BD6FF014030B600020F8E71A230B600020F4E70B230B600020F0E726
:20460000494B00201B780B60EBE7484B00201B785BB20B60E5E704F067F8002871D0444B41
:204620005B88022B08BF00276BD14FF000030222002562F38303039502958DF80C3042F2B6
:20464000034609E002A801A902950395ADF8086004F052F800285AD09DF80C3003F00C0335
:20466000082BEFD0002F5BD19DF90A3013F1800F23600CBF03200020B3E72D4B002093F93B
:204680001C300B60ADE700200860AAE70023284A0B60137E03F001030B60127E520744BFD7
:2046A00043F002030B60234B1878002899D00B68002043F004030B6093E71D4B00201B8EE5
:2046C0000B608EE71A4B00205B8E0B6089E7184B00209B7B0B6084E704F006F830B1144B10
:2046E0005888A0F10200B0FA80F040092060002077E7114B00201B681B680B6071E7012080
:204700006FE7FFF74DFE012805D107468DE780238DF80A3027B96FF07F032360032060E732
:20472000FFF708FEA0E700BF04200020032000206412002002200020F0040020F0B589B0E6
:20474000074603F0D1FF00284ED0344B5B88022B08BF002648D1FEF7D3FC6FF01F052D1AE0
:2047600003E0FEF7CDFCC54245D5FFF7D5FC01280446F6D000283ED102A8182142F60142E2
:2047800004F00EFA264D274BFFB28DF817702978069304949DF81430003118BF012123F093
:2047A0000F0301208DF8143004F0D4F902A801A903F0A2FF28B3287800E040B3BDF80A3017
:2047C00003F44063002BF8D0BDF80A40A4B2B4F5105418BF0124003018BF012004F0CEF90B
:2047E000C6B9204609B0F0BDFFF7DAFD012806D0012009B0F0BD3EB9022009B0F0BD064650
:20480000A9E728780124E6E7FFF794FDF4E7FFF73FF8D0E7FFF78EFD2046EAE764120020E2
:2048200002200020F612002010B50C46B32C014694BF2246B422044806F078FE2046BDE87D
:204840001040FFF77BBF00BFF612002010B5FFF7C3FA012817D003F047FFB0B9FFF7A0FD34
:20486000012804460DD1FFF7E3FCFF2805D000F0030010F1FF3418BF0124FFF75BFD20463F
:2048800010BDFFF757FD012010BD094B5B88022BE4D1FFF741FC0028FBD1FFF7C9FCFF28F1
:2048A000F1D000F0030010F1FF3018BF012010BD641200202DE9F0435B4E83B080460F4679
:2048C0003568FEF71DFC594C241A03E0FEF718FCC44208D52B79022BF8D0032B06D00020BE
:2048E00003B0BDE8F0832B79032BF8D135684E4A2B7A032B07D995F808905FFA89F9A9F1D0
:204900000804BC4207DD2B68002013602871287203B0BDE8F08305F109012246404606F0A1
:2049200005FE09F10303EB5C414F09F104023B7009F10509AB5C55F809003E4D03F03F03CD
:2049400001902B70DDF8049003F0CEFE002858D0394B5B88022B08BF4FF0000851D103F0FC
:20496000C3FE48B1344B5B88022B05D10020FFF787FCB8F1000F54D1304BB9F1404FD3F823
:2049800000800BD9FEF7BCFB2D4B1B68C3F17E4303F57203C34248BF08F1FF384146DFF890
:2049A000ACE06FF4BF72DEF800E012EB09024FF0FF334FF0000043F10003B2EB0E0263EB37
:2049C000EE7312EB000843EB0109DFF884E04FEA092143F60952002341EA18614FEA0820DF
:2049E000CEE9008906F092FA164B174A1B78106063B1336800221968204631601A721A71D0
:204A00006EE7FFF7CDFC4FF00108A8E73978042049B289B202F052F92978032002F04EF966
:204A2000E7E7FFF787FCA7E75C120020FAFEFFFF032000200420002064120020E00F0020F1
:204A400060120020022000202C120020AC1E0020C805002010B503F047FE80B1124B5B88DF
:204A6000022B0CD10020FFF70BFC04469CB9BDE810400E4880210E4A002300F01FBEFFF746
:204A80008FFC0128F3D10020FFF7FAFB0446FFF751FC002CEBD0BDE8104004484FF48731E3
:204AA000034A002300F00ABE6412002038120020554A00002DE9F84F364F3748FFF720F8C0
:204AC00003F0D2FF38460021902206F0A5FD00219022324806F0A0FD002190223048314C81
:204AE00006F09AFD002190222F4806F095FD2F4E2F4B002529462046802242F6010B1F6001
:204B00003760756006F088FD42F202000722022363762276274BB4F81880274FFF2101224A
:204B20004FF06F0C4FF0A60E4FF0190A4FF0B9092661A4F800B084F80EA084F80F90676185
:204B400084F81BC084F81CE0A176627384F83720A3F8028019711880FFF722FC0128044601
:204B600003D02C462046BDE8F88F144804F028F82046FFF785FB124A2B4612484FF48731F0
:204B800000F09CFD2946104801F044F82046BDE8F88F00BFE40F0020B004002074100020BC
:204BA000041100206412002094110020301200205C12002024120020E412002080BB0000CE
:204BC000554A000038120020A00500200AB90020704708B508461146FEF7DCFB002008BD5A
:204BE0000FB400B583B004AB53F8041B04481A46019300F025F803B05DF804EB04B0704742
:204C0000F4040020102970B50C46054602D80AE0102C0BD92B686868084910229847103C8C
:204C20000028F5D070BD08460029FBD022462B6868680249BDE87040184700BF08BC0000CB
:204C40002DE9F04F82460F468FB007924FF0000B3B78002B00F0E880252B08BF3E461BD004
:204C60003C4602E0252B04D014466378621C002BF8D1974216460CD0D51B39462A46DAF843
:204C80000030DAF804009847002840F079826378AB44002B00F0C88073780136002B00F072
:204CA000C38019460025A1F12003102B1BD8DFE803F0171A1A141A1A1A1A1A1A1A111A0E42
:204CC0001A1A090045F0100516F8011FEBE745F00105F9E745F00605F6E745F00805F3E7F9
:204CE00045F00205F0E7A1F13102082A0B46374600F2DC80A1F13002092A4FF000040AD872
:204D000004EB840403EB440417F8013F303CA3F13002092AF4D92E2B00F0D1804FF0FF3657
:204D20006C2B00F03D81682B00F04281782B00F28180DFE813F079007F007F007F007F0013
:204D40007F007F007F007F007F007F007F007F007F007F007F007F007F007F007F007F0063
:204D60007F007F007F007F007F007F007F007F007F007F007F007F007F007F007F007F0043
:204D8000BE027F007F007F007F007F007F007F007F007F007F007F007F007F007F007F00E2
:204DA0007F007F007F007F007F007F007F007F007F007F007F007F00BB027F007F007F00C5
:204DC000B802B502B2027F007F007F007F007F007F007F007F007F007F007F007F007F003B
:204DE0007F007F007F00AF027F007F007F007F007F007F007F007F00AC027F00A902A6020D
:204E0000A302A0029D027F00A6027F007F007F007F009A0297027D007F007F0091027F00C7
:204E20008E027F007F00940258460FB0BDE8F08F45F4407505F4E063B3F5806F07F101070C
:204E400000F0CE804FD9B3F5C06F00F0A581B3F5E06F00F09A81B3F5A06F7FF4F9AE079B8A
:204E6000012C1A6803F1040307938CBF04F1FF340024EB078DF8202000F1D0815046214661
:204E8000FFF7C0FE002840F07B81DAF80030DAF8040008A901229847002840F071810BF139
:204EA000010C0CEB040505EB040BD1E62A2900F08C800B462E2B4FF000047FF42FAF7B78AF
:204EC000791CA3F13002092A7AD80F46002606EB860603EB460617F8013F303EA3F130023D
:204EE000092AF4D91CE7B3F5807F00F0B080B3F5407F7FF4ADAE079BC34A1968C34815F46F
:204F0000804F03F1040308BF9046079318BF80460A460023002900F094810DF1330948468A
:204F2000110941EA03714FEA131E02F00F0673460A4618F8061000F8011D52EA0301EFD102
:204F4000B9EB0006034600F07E810336B4424FF030024FF078014FF0230300F8022C8CBF41
:204F6000A41B0024EA0700F8011C00F8033CA0F1030800F1A18150462146FFF743FE002806
:204F800040F0FE804146DAF80030DAF8040032469847002840F0F4805E4406EB040B57E602
:204FA0007B786C2B00F00481013745F06005BDE67B78682B00F09381013745F04005B5E6A6
:204FC0002A2B00F091810F46A8E6079B771C1C680433002C0793B8BF45F0010573789AE6C4
:204FE000079BD3F8009004330793B9F1000F00F08F8299F80030002B00F0B2824B4613F87D
:20500000012F002AFBD1C9EB0308002E02DBB04528BFB04644458CBFC8EB04040024E9072B
:2050200000F1E08050462146FFF7ECFD002840F0A7804946DAF80030DAF8040042469847F6
:20504000002840F09D80D84408EB040B00E6002EABBF25F0100501230196019315F400536A
:20506000049305F0E00300F0A880402B00F07F8200F24181002B00F02D82202B40F05A8278
:20508000079B1A1D079293F90020D317002A73F10001C0F22A82CDE902230023059305F48C
:2050A000C053B3F5805F00F09281B3F5C05F00F0BF81B3F5006F00F067810DF136064FF0F4
:2050C0000008019B41F20802984541F6080303EA050380F0338101999342C8EB0101019101
:2050E00000F0468141F6080201999342414400F031814FF000094A46049B73B1059B002BBC
:2051000040F0838105F00603022B00F01B824048062B04BF02464FF0010909EB01039C42C0
:205120008CBFE41A002415F00103049306D1E80640F1F681019B2344049C0193B9F1000F05
:2051400007D01146DAF80030DAF804004A469847B0B9019B08EB0B05102B40F291819B4672
:2051600003E0BBF1100F40F28E81DAF80030DAF80400284910229847ABF1100B0028F0D047
:205180004FF0FF300FB0BDE8F08F079B1A680433C2F800B007935BE5DAF80030DAF8040047
:2051A0001D49012298470028EAD10BF1010B4FE5BB7845F080050237B8E5402B00F0C68103
:2051C00000F2A980002B00F09881202B40F02181079B049A05921A1D07921A780023CDE951
:2051E00002235CE74946DAF80030DAF80400424698470028C4D150462146D844FFF702FDAE
:2052000000283FF421AFBBE7D4BB0000C0BB0000F8BB000018BC000004BC0000DAF800306E
:20522000DAF8040008A9012298470028A8D1504621460BF10105FFF7E5FC00283FF433AE32
:205240009EE70DF13303302203F8012C581E04267CE645F41065EDE545F48065EAE545F473
:20526000C855E7E545F48855E4E545F4E065E1E545F48135DEE545F40075DBE545F4024582
:20528000D8E545F42455D5E545F4A065D2E545F4C135CFE545F4B245CCE545F4A135C9E56F
:2052A00045F48445C6E545F44245C3E545F4E135C0E545F4C065BDE54146DAF80030DAF88A
:2052C00004003246984700287FF45AAF504621465E44FFF797FC00283FF45FAE50E7BB78D5
:2052E00045F02005023721E5079ABB78111D07911668023714E5602B00F0EC80802B40F009
:205300001981079B073323F0070303F108020792D3E90023BAE6602B00F0EF80802B78D106
:20532000049B0593079B073323F0070303F108020792D3E90023CDE90223B0E6934200F091
:20534000EC800022019241F608020199934241447FF4CFAEDDE9022313433FF4CAAE874B49
:2053600015F4804F864A4FF0020908BF1A46C3E60B46002908BF01230193019B4FF000098E
:205380004A4603EB0801B7E6DDE9028942464B46134300F0E7800DF136031E460693404618
:2053A00049460A22002305F0B1FD30324046494606F8012D00230A2205F0A8FD804689464B
:2053C00058EA0903EBD1069BC6EB030879E6DDE90223134300F0C6800DF1360306939E46DC
:2053E000DDE90223D00840EA4370DE0802F007013346024630310EF8011D52EA0301F1D1E5
:20540000069B7646CEEB03085BE64FF001095D4A83E605F4C053002200200021B3F5805FDB
:205420000592CDE90201D2D0B3F5C05F40F08580DDE90201544A554B15F4804F14BF9046F6
:20544000984602460B46134300F08C800DF1360306931E4602460B46110941EA03714FEAC4
:20546000131E02F00F0073460A4618F8001006F8011D52EA0301EFD1069BC6EB030820E652
:20548000019B9B464BB15A46DAF80030DAF804003F49984700287FF473AE31464246DAF827
:2054A0000030DAF804004D44984700287FF468AE019B2B441E46049B002B3FF46EAD5046A8
:2054C0002146FFF79FFB00287FF45AAE06EB040BFFF7BEBB079B1A6804330793002A4FEA6B
:2054E000E27373F10001BFF6D6AD524263EB4303CDE9022301230593D1E5049A079B05926E
:205500001A680021104604330793CDE90201C6E5DFF884904FF0060877E5012301932CE7FE
:20552000504621460292FFF76DFB029A00283FF405AE25E600220023ADE5DDF814800DF189
:205540003606BEE5134A4FF00109E6E5079B049A05921A1D07921A880023CDE902239EE531
:20556000984652E54FF000080DF13606A9E5079B1A1D0792B3F90020D31787E5ECBB0000CC
:20558000E8BB0000F0BB0000C0BB0000D4BB000018BC0000F4BB0000FCBB000010B504466A
:2055A000006830B1002100F035FB54F8040F0028F8D110BDF0B5038883B005465BB14A2B15
:2055C00004D188291BD0012003B0F0BD00230380032003B0F0BD194800F01EFD044630B119
:2055E000201DA16800F080F92468002CF8D1144B01221A704A2301202B8003B0F0BD0F487F
:20560000019200F009FD04460028F3D0019A031D9A4205D02468231D002CEBD09A42F9D107
:205620000648214600F03EFD064E6269A369376832600BB1E06998473760DBE7AC13002012
:2056400005200020B813002010B5064B002406481C7000F0DDFC2146BDE81040034800F0A6
:20566000D9BA00BF05200020AC130020FC04002070B504460D48049D0078A261E3616561AA
:2056800030B9A1600A482146BDE8704000F0C6BC084D094B2E68201D2B6000F025F92E60FD
:2056A0002146BDE87040024800F0B8BC05200020AC130020B8130020FC04002010B5044C3C
:2056C00082B024680094FFF7D3FF02B010BD00BFB813002070B5094B04461B783BB1084DF0
:2056E000084B2E6804302B6000F008F92E602146BDE87040044800F091BC00BF052000203A
:20570000B8130020FC040020AC13002070B5094B04461B783BB1084D084B2E6804302B6060
:2057200000F0F6F82E602146BDE87040044800F075BC00BF05200020B8130020FC040020C5
:20574000AC13002010B50A4B04461B783BB9C36003612146BDE81040064800F0A3BC0430CB
:2057600000F0F2F82146BDE81040024800F09ABC05200020AC130020704700BF10B50E4CAA
:205780002368B3B1FDF77EFC22685168136892681944091A4AB192E8180023441B1A926851
:2057A000994228BF1946002AF5D1044B0844186010BD024A136010BDB0130020B4130020A2
:2057C0002DE9F041038805467BB1592B08D1872912D0822920D059232B800120BDE8F08198
:2057E000002303800320BDE8F081254A0120136059232B80BDE8F081214F3B68002BEAD092
:20580000D9688A4203D024E0D9688A4220D19B68002BF9D13B60DEE7194F4FF000083C68FB
:20582000002CD8D0002604E0A3682646002BD2D01C46204600F05AFA0028F5D0E06888215C
:20584000224600F0BBF978B10E4800F003FAEBE73B6099680029BED0C86882420BBF8968FC
:205860000B4699608968F5E7E060A3682EB1B360C4F80880FFF782FFD1E73B60F8E700BF28
:20588000B01300200C05002010B50446104800F0E1F91049E3680A684BB142B194420FD009
:2058A000134601E09C420BD09B68002BFAD10A4BA2601B680C60E360BDE81040FFF75EBF6B
:2058C000054B1B68E360BDE81040FFF757BF00BF0C050020B0130020B8130020014800F0BA
:2058E000B9B900BF0C05002010B5044600F0EAF92046BDE81040FFF7C7BF00BF10B50446BF
:2059000000F0E8F92046BDE81040FFF7BDBF00BF10B5044600F0E4F92046BDE81040FFF7FD
:20592000B3BF00BF024B1868003018BF01207047B0130020024B186808B1024B186870479D
:20594000B0130020B413002010B5114B04461A68904218D05AB19368834208BF13460AD011
:205960002BB19A68A24206D01346002BF9D10023A360E36010BDA2689A60FFF7FFFE0023F1
:20598000A360E36010BD82681A60FFF7F7FEEEE7B01300202DE9F843DFF8A480274DD8F85D
:2059A00000702E68874247D077B33B4601E0002B3BD01B689842FAD133B3837B894604461A
:2059C00023B3002383736FB1BC424FF0870106D0BB7BDB0703D53846224600F033F83F6885
:2059E000002FF1D1A3683BB14C4505D02C6004F10C00832100229847D8F80000844208D1B8
:205A00002368C8F800302E60BDE8F88338468442F6D00028F7D00368A34208D0002BF2D04F
:205A20001A68A24204D01346F8E7BDE8F883034622681A602E60E7E73B46BDE7B81300201B
:205A4000BC13002070B586687EB104460A4802230460A37304F10C000D46B047023801282C
:205A600004D9832D02D00123A37370BD20462146BDE87040FFF78EBFB813002070B50C4A95
:205A80000C4B146800251D7084B1012601E0246864B1E37B002BFAD0A673E57320468221D6
:205AA0000022FFF7CFFF2468002CF2D170BD00BFBC13002008200020024B1878421C1A709D
:205AC000704700BF0920002070B407480749084A0023084D084C8A2603700B6013602E7087
:205AE000237070BC704700BF07200020BC130020B813002009200020062000202DE9F0417A
:205B0000244D2B780BB1FFF7B9FF234E3378D3B1DFF890E0214F9EF80020013B02EB42018E
:205B200089007C180132A068DBB202F01F0233708EF800207F5CD4F8048098B1812F06D02A
:205B4000827BD20705D428781844BDE8F0810123837339464246FFF775FF33782878184452
:205B6000BDE8F0810E4A146834B9ECE7A37BD9070AD42468002CF0D02B78002BF6D0FFF79D
:205B80007DFFA37BD907F4D5204639464246FFF759FFEEE70820002007200020C0130020B0
:205BA000BC13002006200020024A034B10781B78184470470720002008200020F0B40C4D5C
:205BC0002C78202C11D00B4B0B4E1B78671C234403F01F0303EB43039B00F418A060626016
:205BE0002F70F1540020F0BC70470120F0BC70470720002006200020C013002038B5837B4F
:205C0000034CDB07256801D5FFF71CFF256038BDB813002070B404460D4D2868A04206D06A
:205C200038B1034600E023B11B689C42FBD170BC7047002CFBD0012600232060A673A38170
:205C40000A4620462C60812170BCFFF7D7BF00BFBC13002038B1837B013B012B03D8024A84
:205C600001231370C373704708200020FDF742BA38B5094C049D226822B180E82A00206006
:205C8000002038BD024680E82A0008462260FDF733FA002038BD00BF4015002010B5084CC2
:205CA000206858B100224368816822609847236823B1BDE810401868FDF71EBA10BD00BF10
:205CC0004015002010B541600446FDF7DBF9206010BD00BF90E80C0013440360704700BF17
:205CE00010B50446FDF7CEF9206010BD10B50446FDF7C8F923686268C3F10103184482429C
:205D00002CBF0020012010BDF8B504880546672C0CD0792C1BD01CB1002303800320F8BDBC
:205D2000FFF7CAFE1E4A1F4B10701C601D4C264604E00A2813D023687E2B2BDD1A4800F07B
:205D4000E5F9431CF5D167232B800120F8BD852901D00120F8BD134C00232360E6E7114CB1
:205D6000124F23680E49002603F1010E3A4609783046FE54C4F800E0FFF720FF0C4B32466E
:205D800018688521FFF71AFF0028E5D179232B800120F8BD05495A1CC8543260CEE700BFED
:205DA000692000204C160020C4150020CC150020B813002008B505480549802200F09EF952
:205DC000BDE8084003480021FFF724BFC4150020441500201C0500202DE9F04F53088BB0F3
:205DE000009206900591079300F002814FF0000C0CF1010C5B081FFA8CFCF9D10CF1FF3386
:205E00009BB2CDF820C0059900980A4601EB4000002122F8021B8242FBD1089A002A00F03A
:205E20009C800293079BDFF8DC810393DFF8D8A10123DFF8D89109934FF0000E039B002BDF
:205E400000F0D3807344069A05985E004FEA4E04971915190193064404930444029B4EFAA2
:205E600003F080B2BCF1000F00F0BD806146002300F00102013902EB430389B29BB240081A
:205E80000029F5D14FF47A7202FB03F3009A0EF1010E93FBF2F399B2C1EB0111C900AAFB5F
:205EA0000121FA339AB2C2EB0212D200C1F38F13AAFB0212A9FB0301C2F38F12A9FB02B051
:205EC0008909C1EB0111A3EBC1039BB218F903108009B6F90030C0EB001001FB03FBA2EB05
:205EE000C00292B2B7F9000018F9022003FB02F302FB00B2B5F800B000FB1133C2F3CF12E5
:205F0000C2EB0B0B27F802BBB4F800B0C3F3CF13C3EB0B0B26F802BB29880A4425F8022B06
:205F20002088034424F8023B019B9E4596D1049B039A13449E46009B9E45FFF67FAF029B7E
:205F4000099A013B9BB20293039B01325B080393089B09929A427FF76FAF069BDDF814E09E
:205F600067461E4675469C460024A0B2CFB13B46002200F00101013B01EB42029BB292B2EB
:205F80004008002BF5D194420BDA33883CF8121031802CF812302B883EF8121029802EF80B
:205FA0001230009B01349C4206F1020605F10205DBDB079BA3B1059B0699981E079B01EBC6
:205FC0004304B1F9002030F9023F002AB8BF5242002BB8BF5B42134421F8023BA142F0D181
:205FE0000BB0BDE8F08F634650E7CDF810E09EE7009B012BF4D1079A4FF6FF730892944650
:2060000001E700BF54BC0000D34D62108988888800230360704700BF00687047026842B19E
:20602000914203D11BE099420ED01A461368002BF9D100230B6002680AB90EE01A461368B1
:20604000002BFBD1116070470B68136000230B6000230B600268002AF1D1016070470B683E
:206060000360F3E710B404684CB1A14217D0224602E0994208D01A461368002BF9D10C60B3
:2060800001605DF8044B70470C460B6813600023236004680C6001605DF8044B70470B685F
:2060A0000360F4E7026842B18A4203D10BE0994204D01A461368002BF9D170471968116092
:2060C00000221A607047134612680260F8E700BF03682BB100201B680130002BFBD17047D1
:2060E0001846704700B10068704700BF08B501F05BFD80B208BD00BF01F0E0BD0023013A54
:206100000160027143718371704700BF0346807959791A79091A114208D010B4411C1C68F3
:206120000A40205C9A715DF8044B70474FF0FF30704700BFF8B506460B480D461746FFF75D
:206140006BFF044648B1A3680BB1284698472046FFF7C8FF04460028F5D1304629463A46BE
:20616000BDE8F84002F000BE5016002038B502F00BFF05460A48FFF74FFF044640B163683C
:2061800003B198472046FFF7ADFF04460028F6D125B12846BDE8384002F0E0BD38BD00BF87
:2061A0005016002010B500F0B3FD00F01BFD02F0E1FD02F0E7FEBDE8104002204FF400717A
:2061C0004FF4F0524FF4E12302F08CBE10B5044602F0E8FE38B100F02BFC034B03482146D0
:2061E0009B689847012010BD3CBD00003561000070B5064600F0C4F80546074A1368064CBA
:20620000002BFBD0B0470123236005B170BDBDE8704000F0B9B800BF00800C4010B4064AB2
:20622000064C1368206811688B42FAD11B0443EA10405DF8044B7047082009400C2009401B
:20624000024B186800F00E00704700BFD42108404BF69A11114A1368C3F30F338B4212D057
:206260004BF6BE12934216D04BF64132934207D04BF62030834214BFFF20022040B27047DF
:20628000032040B2704713681B0F0B2B0CBF0420002040B27047012040B27047181300505A
:2062A00038B5154B1D68C5F30334FFF7D1FF00BB631E0E2B1DD840F60911012202FA03F388
:2062C000194041B95A040DD413F0020F14BF0220FF2040B238BD15F4000F0CBF04200720EF
:2062E00040B238BD15F0807F0CBF0520062040B238BDFF20F4E700BF9412005038B5194AB7
:20630000194B1B6814681D0FE4B2802C28BF0024FFF79EFF04281BD8DFE800F00E0803031C
:206320000400ADB90A34E0B240B238BD6DB1022D0ED11434E0B2F7E76B1E072B08D8DFE8F6
:2063400003F004070C0707070E090A2040B238BDFF20E9E71634E0B2E6E71420E4E715202A
:20636000E2E700BFA01000501813005008B5FFF76FFF00B1FEE7FFF7C1FF1528FADD08BDD4
:20638000EFF3108072B67047EFF3108062B6704701387FF4FDAF70472DE9F04107460E4674
:2063A0009046FFF7EDFF084D2B68074C002BFBD0012347F80680236008B1BDE8F081BDE814
:2063C000F041FFF7E1BF00BF00800C4070B50F2BBDF8105088BF103B00EB410188BF120CD3
:2063E00005FA03F594BF01F5007601F5017645EA0245FFF7C5FF074C23680649002BFBD027
:20640000012335600B6000B170BDBDE87040FFF7BBBF00BF00800C400F2B2DE9F8439846C1
:20642000174600EB010904D9A3F1100809F10209170CFFF7A5FF094E3468084D002CFBD080
:20644000B9F800400123A4B22B6008B9FFF79CFF274047FA08F080B2BDE8F88300800C4036
:2064600030B50D46C10783B0044616D4A2070BD4630707D5ADB200950C4800210C2202232B
:20648000FFF7A4FF03B030BDABB200930748002102220123FFF79AFFEAE7ABB200210093AA
:2064A00002480B460122FFF791FFDFE700A00C4008B504284FF0340107BF4FF0C0421D2342
:2064C0004FF080521C230248FFF7A6FF08BD00BF00A00C4001280AD018B1084B01221A605B
:2064E0007047074A136823F0050313607047044A136843F005031360704700BF800104431F
:206500000000094038B505462A4B01212A4A19601368002BFCD0294AC021294B11601B6848
:206520009B073FD4274BA2F57F321B68A2F5D572C3F3034343F0F0031370234A234B0021EA
:2065400011601C68204601F0EDFB2846214601F05DFD40F20E221E4B1B689BB2934212D88D
:206560001C4A13681268C3F30363C2F30342EBB9911F012983BF023202F00F02120170220E
:20658000154913430B70204601F00AFC134B02201B68DB6898470949114B402001220860B1
:2065A0001A6038BD0F4B72221A70C6E7013BDBB2DEE700BF101009409402224300600C40EA
:2065C000B03F0050AC3F005040100940B43F005014130050BC12005002600840A001001075
:2065E000940460425662084038B51E4B00251C68631C08BF0024FFF7B9FE1B481B491C4A1E
:20660000012305600B60136001F0CAFD194B1B6823B1194B20461B68FFF774FF174B002167
:20662000174A19601368174923F07F6323F4702343F09C7343F4803313600B68C3F301330A
:20664000012B04D0104A1368002BFCD138BD0B6823F0407323F4403343F400320A600B6077
:20666000F0E700BF1C130050840460425C600C400822044380012843000120438C2108401D
:2066800048200340040009400C0068422DE9F84F8A4B1B6813F0020407D08949894B8A4A3D
:2066A000082088711A60BDE8F88F064602F0C2FC864B1A681317910203F1010308D4C0F182
:2066C0003E01C9100829A8BF08218B42B8BF0B467F490D687F49C5F304650968152D88BF2C
:2066E000203DC1F3044115292B4488BF2039152B00F3998013F10A0F80F2CA8041F6167510
:206700006FF00903DFF8E4E1734FAEF800503F6817F0030518BF01257F0748BF45F002053E
:206720000EB145F00405664E96F90770C71B042F03DCB779AF4200F0A980B0F10F0700F1CC
:206740009C8007EB07142712072F00F28E8000F0AC8007F10108DFF898E14FEA8808DFF894
:2067600094C1C644C444F0463F02DEF800E0DCF800A015F0040CCEEB0A0A5FFA8AFB1CBF76
:20678000CAF3072EF34415F0020E1CBFCAF30749CB4415F001095ED1E41B04FB0BF48034D5
:2067A000240AD8F800805FFA88F7BCF1000F02D0C8F3072C6744BEF1000F02D0C8F3074EBC
:2067C0007744B9F1000F01D007EB1867C91A00294FF03403C8BF4B43D2B202FB03F23C4476
:2067E000B2FBF4F34FF6FF718B4228BF0B467F289AB2B2802DDC10F1800FB8BF802352DA47
:20680000F371B571354B1E2A19682D48134631600DD81F238380324B2A48324A002103602D
:206820001160BDE8F88F41F6157515236AE7B2F5007F28BF002230D35B08B3F5007F02F1C2
:206840000102F9D228490F3B1B09114341EAC303E2E77F23D4E70BEB1A6AE41B04FB0AF4AA
:206860008034240A4FF001099BE7DFF88C804FF4E067C446DFF884E077E705F0040C05F061
:20688000020E05F00109DFF86C808AE7B288B9E703F01F0545F4F85534E70F3A1209124B62
:2068A000D2001343B8E7C3B2AAE7DFF84C80DFF84CE0C4464FF4E06757E700BF000009408B
:2068C0005416002030100940FDFDA400B43F0050B81200503C11005024220840082009400E
:2068E00008E7A4803410094000E7A4806E620840981300509C130050B8130050B4130050A9
:2069000038B5154B1C68A4B204B938BD02F092FB124B93F90720904216DB9A880F499442FC
